:1000000009C019C018C017C016C015C014C013C04D
:1000100012C011C011241FBECFE9CDBF10E0A0E671
:10002000B0E0ECECF0E002C005900D92A636B1070E
:10003000D9F708D049C0E4CF805A9F4FFC01808196
:1000400088BB08958FE187BB18BA80E038E024E0D0
:1000500092E012C0E82FF0E0E05AFF4F408148BB29
:10006000EFE4F3EC3197F1F700C0000018BAF1E2C9
:10007000FA95F1F700008F5F853060F338BBEFE44D
:10008000F3EC3197F1F700C0000018BAF1E2FA95ED
:10009000F1F7000028BBEFE4F3EC3197F1F700C073
:1000A000000018BAF1E2FA95F1F7000098BBEFE40E
:1000B000F3EC3197F1F700C0000018BAF1E2FA95BD
:0C00C000F1F7000080E0C6CFF894FFCFFD
:0600CC000102040810000F
:00000001FF
